{
  "contractName": "FauxFinderTransactions",
  "abi": [
    {
      "anonymous": false,
      "inputs": [
        {
          "indexed": false,
          "internalType": "string",
          "name": "mName",
          "type": "string"
        },
        {
          "indexed": false,
          "internalType": "address",
          "name": "mAddress",
          "type": "address"
        }
      ],
      "name": "addManufacturer",
      "type": "event"
    },
    {
      "anonymous": false,
      "inputs": [
        {
          "indexed": false,
          "internalType": "uint256",
          "name": "pID",
          "type": "uint256"
        },
        {
          "indexed": false,
          "internalType": "address",
          "name": "pManufacturer",
          "type": "address"
        }
      ],
      "name": "addProduct",
      "type": "event"
    },
    {
      "anonymous": false,
      "inputs": [
        {
          "indexed": false,
          "internalType": "uint256",
          "name": "pid",
          "type": "uint256"
        },
        {
          "indexed": false,
          "internalType": "address",
          "name": "newOwner",
          "type": "address"
        }
      ],
      "name": "changedOwnership",
      "type": "event"
    },
    {
      "constant": true,
      "inputs": [
        {
          "internalType": "address",
          "name": "",
          "type": "address"
        }
      ],
      "name": "Manufacturers",
      "outputs": [
        {
          "internalType": "bool",
          "name": "exists",
          "type": "bool"
        },
        {
          "internalType": "string",
          "name": "mName",
          "type": "string"
        },
        {
          "internalType": "address",
          "name": "mAddress",
          "type": "address"
        }
      ],
      "payable": false,
      "stateMutability": "view",
      "type": "function"
    },
    {
      "constant": true,
      "inputs": [
        {
          "internalType": "uint256",
          "name": "",
          "type": "uint256"
        }
      ],
      "name": "Products",
      "outputs": [
        {
          "internalType": "bool",
          "name": "exists",
          "type": "bool"
        },
        {
          "internalType": "uint256",
          "name": "pID",
          "type": "uint256"
        },
        {
          "internalType": "string",
          "name": "pName",
          "type": "string"
        },
        {
          "internalType": "string",
          "name": "pDesc",
          "type": "string"
        },
        {
          "internalType": "address",
          "name": "pManufacturer",
          "type": "address"
        },
        {
          "internalType": "address",
          "name": "currentOwner",
          "type": "address"
        }
      ],
      "payable": false,
      "stateMutability": "view",
      "type": "function"
    },
    {
      "constant": true,
      "inputs": [],
      "name": "owner",
      "outputs": [
        {
          "internalType": "address",
          "name": "",
          "type": "address"
        }
      ],
      "payable": false,
      "stateMutability": "view",
      "type": "function"
    },
    {
      "constant": false,
      "inputs": [
        {
          "internalType": "string",
          "name": "_mName",
          "type": "string"
        },
        {
          "internalType": "address",
          "name": "_mAddress",
          "type": "address"
        }
      ],
      "name": "createManufacturer",
      "outputs": [],
      "payable": false,
      "stateMutability": "nonpayable",
      "type": "function"
    },
    {
      "constant": false,
      "inputs": [
        {
          "internalType": "string",
          "name": "_name",
          "type": "string"
        },
        {
          "internalType": "string",
          "name": "_desc",
          "type": "string"
        }
      ],
      "name": "createProduct",
      "outputs": [],
      "payable": false,
      "stateMutability": "nonpayable",
      "type": "function"
    },
    {
      "constant": true,
      "inputs": [
        {
          "internalType": "uint256",
          "name": "_id",
          "type": "uint256"
        }
      ],
      "name": "getProduct",
      "outputs": [
        {
          "components": [
            {
              "internalType": "bool",
              "name": "exists",
              "type": "bool"
            },
            {
              "internalType": "uint256",
              "name": "pID",
              "type": "uint256"
            },
            {
              "internalType": "string",
              "name": "pName",
              "type": "string"
            },
            {
              "internalType": "string",
              "name": "pDesc",
              "type": "string"
            },
            {
              "internalType": "address",
              "name": "pManufacturer",
              "type": "address"
            },
            {
              "internalType": "address",
              "name": "currentOwner",
              "type": "address"
            },
            {
              "internalType": "address[]",
              "name": "listOfOwners",
              "type": "address[]"
            }
          ],
          "internalType": "struct FauxFinderTransactions.Product",
          "name": "",
          "type": "tuple"
        }
      ],
      "payable": false,
      "stateMutability": "view",
      "type": "function"
    },
    {
      "constant": false,
      "inputs": [
        {
          "internalType": "uint256",
          "name": "_id",
          "type": "uint256"
        },
        {
          "internalType": "address",
          "name": "_newOwner",
          "type": "address"
        }
      ],
      "name": "ownershipChange",
      "outputs": [],
      "payable": false,
      "stateMutability": "nonpayable",
      "type": "function"
    }
  ],
  "bytecode": "0x6080604052600080546001600160a01b0319163317815560015534801561002557600080fd5b50610dbc806100356000396000f3fe608060405234801561001057600080fd5b506004361061007d5760003560e01c80638da5cb5b1161005b5780638da5cb5b146100bd578063b9db15b4146100db578063dba3f6aa146100fb578063f71350f6146101205761007d565b8063292020d8146100825780635d50e8081461009757806387592bce146100aa575b600080fd5b6100956100903660046109e1565b610142565b005b6100956100a5366004610913565b6101ea565b6100956100b8366004610964565b61028e565b6100c561037f565b6040516100d29190610b71565b60405180910390f35b6100ee6100e93660046109c3565b61038e565b6040516100d29190610c3d565b61010e6101093660046109c3565b61057e565b6040516100d296959493929190610bae565b61013361012e3660046108ed565b6106d7565b6040516100d293929190610b7f565b600082815260036020526040902060058101546001600160a01b0316331461016957600080fd5b6005810180546001600160a01b0384166001600160a01b031991821681179092556006830180546001810182556000918252602090912001805490911690911790556040517feee82a86e06df018fbb160195092b6301bd92f494610b7ec08fbe25a39339860906101dd9085908590610c4e565b60405180910390a1505050565b6000546001600160a01b0316331461020157600080fd5b6001600160a01b0381166000908152600260209081526040909120805460ff1916600190811782558451919261023e929184019190860190610791565b506002810180546001600160a01b0319166001600160a01b0384161790556040517f1ad2ce5a5df121738987cd94fd71f43583f75dffcc1d62c17bf061916ace3cee906101dd9085908590610c16565b3360009081526002602052604090205460ff1615156001146102af57600080fd5b600180546000908152600360209081526040909120805460ff19168317815582549281019290925583516102eb91600284019190860190610791565b5081516103019060038301906020850190610791565b50600481018054336001600160a01b031991821681179092556005830180548216831790556006830180546001818101835560009283526020909220018054909216831790915580548082019091556040517fdd57cd46da0364851657adeb56a0f03e320612a8e89ff3e6d0e04c603593712d926101dd9291610c69565b6000546001600160a01b031681565b61039661080f565b600082815260036020908152604091829020825160e081018452815460ff1615158152600180830154828501526002808401805487516101009482161594909402600019011691909104601f8101869004860283018601875280835292959394938601939192909183018282801561044f5780601f106104245761010080835404028352916020019161044f565b820191906000526020600020905b81548152906001019060200180831161043257829003601f168201915b505050918352505060038201805460408051602060026001851615610100026000190190941693909304601f81018490048402820184019092528181529382019392918301828280156104e35780601f106104b8576101008083540402835291602001916104e3565b820191906000526020600020905b8154815290600101906020018083116104c657829003601f168201915b505050918352505060048201546001600160a01b039081166020808401919091526005840154909116604080840191909152600684018054825181850281018501909352808352606090940193919290919083018282801561056e57602002820191906000526020600020905b81546001600160a01b03168152600190910190602001808311610550575b5050505050815250509050919050565b60036020908152600091825260409182902080546001808301546002808501805488516101009582161595909502600019011691909104601f810187900487028401870190975286835260ff9093169590949192918301828280156106245780601f106105f957610100808354040283529160200191610624565b820191906000526020600020905b81548152906001019060200180831161060757829003601f168201915b5050505060038301805460408051602060026001851615610100026000190190941693909304601f81018490048402820184019092528181529495949350908301828280156106b45780601f10610689576101008083540402835291602001916106b4565b820191906000526020600020905b81548152906001019060200180831161069757829003601f168201915b50505050600483015460059093015491926001600160a01b039081169216905086565b6002602081815260009283526040928390208054600180830180548751601f6000199483161561010002949094019091169690960491820185900485028601850190965280855260ff909116949193928301828280156107785780601f1061074d57610100808354040283529160200191610778565b820191906000526020600020905b81548152906001019060200180831161075b57829003601f168201915b505050600290930154919250506001600160a01b031683565b828054600181600116156101000203166002900490600052602060002090601f016020900481019282601f106107d257805160ff19168380011785556107ff565b828001600101855582156107ff579182015b828111156107ff5782518255916020019190600101906107e4565b5061080b929150610860565b5090565b6040518060e0016040528060001515815260200160008152602001606081526020016060815260200160006001600160a01b0316815260200160006001600160a01b03168152602001606081525090565b61087a91905b8082111561080b5760008155600101610866565b90565b803561088881610d59565b92915050565b600082601f83011261089f57600080fd5b81356108b26108ad82610cab565b610c84565b915080825260208301602083018583830111156108ce57600080fd5b6108d9838284610d13565b50505092915050565b803561088881610d70565b6000602082840312156108ff57600080fd5b600061090b848461087d565b949350505050565b6000806040838503121561092657600080fd5b823567ffffffffffffffff81111561093d57600080fd5b6109498582860161088e565b925050602061095a8582860161087d565b9150509250929050565b6000806040838503121561097757600080fd5b823567ffffffffffffffff81111561098e57600080fd5b61099a8582860161088e565b925050602083013567ffffffffffffffff8111156109b757600080fd5b61095a8582860161088e565b6000602082840312156109d557600080fd5b600061090b84846108e2565b600080604083850312156109f457600080fd5b600061094985856108e2565b6000610a0c8383610a23565b505060200190565b610a1d81610d02565b82525050565b610a1d81610ce6565b6000610a3782610cd9565b610a418185610cdd565b9350610a4c83610cd3565b8060005b83811015610a7a578151610a648882610a00565b9750610a6f83610cd3565b925050600101610a50565b509495945050505050565b610a1d81610cf1565b6000610a9982610cd9565b610aa38185610cdd565b9350610ab3818560208601610d1f565b610abc81610d4f565b9093019392505050565b805160009060e0840190610ada8582610a85565b506020830151610aed6020860182610b68565b5060408301518482036040860152610b058282610a8e565b91505060608301518482036060860152610b1f8282610a8e565b9150506080830151610b346080860182610a23565b5060a0830151610b4760a0860182610a23565b5060c083015184820360c0860152610b5f8282610a2c565b95945050505050565b610a1d8161087a565b602081016108888284610a23565b60608101610b8d8286610a85565b8181036020830152610b9f8185610a8e565b905061090b6040830184610a23565b60c08101610bbc8289610a85565b610bc96020830188610b68565b8181036040830152610bdb8187610a8e565b90508181036060830152610bef8186610a8e565b9050610bfe6080830185610a23565b610c0b60a0830184610a23565b979650505050505050565b60408082528101610c278185610a8e565b9050610c366020830184610a23565b9392505050565b60208082528101610c368184610ac6565b60408101610c5c8285610b68565b610c366020830184610a23565b60408101610c778285610b68565b610c366020830184610a14565b60405181810167ffffffffffffffff81118282101715610ca357600080fd5b604052919050565b600067ffffffffffffffff821115610cc257600080fd5b506020601f91909101601f19160190565b60200190565b5190565b90815260200190565b600061088882610cf6565b151590565b6001600160a01b031690565b600061088882600061088882610ce6565b82818337506000910152565b60005b83811015610d3a578181015183820152602001610d22565b83811115610d49576000848401525b50505050565b601f01601f191690565b610d6281610ce6565b8114610d6d57600080fd5b50565b610d628161087a56fea365627a7a7231582071f962877da715d11a14cab08d620b6c63dd001409920639186293b6635a2c2b6c6578706572696d656e74616cf564736f6c63430005100040",
  "source": "pragma solidity >=0.4.22 <0.9.0;\r\npragma experimental ABIEncoderV2;\r\n\r\ncontract FauxFinderTransactions {\r\n    address public owner = msg.sender;\r\n\r\n    uint productID = 0;\r\n\r\n    struct Manufacturer {\r\n        bool exists;\r\n        string mName;\r\n        address mAddress;\r\n    }\r\n\r\n    struct Product {\r\n        bool exists;\r\n        uint pID;\r\n        string pName;\r\n        string pDesc;\r\n        address pManufacturer;\r\n        address currentOwner;\r\n        address[] listOfOwners;\r\n    }\r\n\r\n    mapping(address => Manufacturer) public Manufacturers;\r\n    mapping(uint => Product) public Products;\r\n\r\n    event addManufacturer(string mName, address mAddress);\r\n    event addProduct(uint pID, address pManufacturer);\r\n    event changedOwnership(uint pid, address newOwner);\r\n\r\n    function createManufacturer(\r\n        string memory _mName,\r\n        address _mAddress\r\n    ) public {\r\n        require(msg.sender == owner);\r\n\r\n        Manufacturer storage m = Manufacturers[_mAddress];\r\n        m.exists = true;\r\n        m.mName = _mName;\r\n        m.mAddress = _mAddress;\r\n        emit addManufacturer(_mName, _mAddress);\r\n    }\r\n\r\n    function createProduct(string memory _name, string memory _desc) public {\r\n        require(Manufacturers[msg.sender].exists == true);\r\n\r\n        Product storage p = Products[productID];\r\n        p.exists = true;\r\n        p.pID = productID;\r\n        p.pName = _name;\r\n        p.pDesc = _desc;\r\n        p.pManufacturer = msg.sender;\r\n        p.currentOwner = msg.sender;\r\n        p.listOfOwners.push(msg.sender);\r\n        productID++;\r\n\r\n        emit addProduct(productID - 1, msg.sender);\r\n    }\r\n\r\n    function getProduct(uint _id) public view returns (Product memory) {\r\n        return Products[_id];\r\n    }\r\n\r\n    function ownershipChange(uint _id, address _newOwner) public {\r\n        Product storage p = Products[_id];\r\n        require(p.currentOwner == msg.sender);\r\n\r\n        p.currentOwner = _newOwner;\r\n        p.listOfOwners.push(_newOwner);\r\n        emit changedOwnership(_id, _newOwner);\r\n    }\r\n}\r\n",
  "sourcePath": "C:\\Users\\JUNA JOY\\miniproject\\FauxFinder\\contracts\\FauxFinderTransactions.sol",
  "compiler": {
    "name": "solc",
    "version": "0.5.16+commit.9c3226ce.Emscripten.clang"
  },
  "schemaVersion": "3.4.14",
  "updatedAt": "2023-06-12T17:23:24.217Z",
  "devdoc": {
    "methods": {}
  },
  "userdoc": {
    "methods": {}
  }
}