{
  "contractName": "FauxFinderTransactions",
  "abi": [
    {
      "anonymous": false,
      "inputs": [
        {
          "indexed": false,
          "internalType": "string",
          "name": "mName",
          "type": "string"
        },
        {
          "indexed": false,
          "internalType": "address",
          "name": "mAddress",
          "type": "address"
        }
      ],
      "name": "addManufacturer",
      "type": "event"
    },
    {
      "anonymous": false,
      "inputs": [
        {
          "indexed": false,
          "internalType": "uint256",
          "name": "pID",
          "type": "uint256"
        },
        {
          "indexed": false,
          "internalType": "address",
          "name": "pManufacturer",
          "type": "address"
        }
      ],
      "name": "addProduct",
      "type": "event"
    },
    {
      "anonymous": false,
      "inputs": [
        {
          "indexed": false,
          "internalType": "uint256",
          "name": "pid",
          "type": "uint256"
        },
        {
          "indexed": false,
          "internalType": "address",
          "name": "newOwner",
          "type": "address"
        }
      ],
      "name": "changedOwnership",
      "type": "event"
    },
    {
      "constant": true,
      "inputs": [
        {
          "internalType": "address",
          "name": "",
          "type": "address"
        }
      ],
      "name": "Manufacturers",
      "outputs": [
        {
          "internalType": "bool",
          "name": "exists",
          "type": "bool"
        },
        {
          "internalType": "string",
          "name": "mName",
          "type": "string"
        },
        {
          "internalType": "address",
          "name": "mAddress",
          "type": "address"
        }
      ],
      "payable": false,
      "stateMutability": "view",
      "type": "function"
    },
    {
      "constant": true,
      "inputs": [
        {
          "internalType": "uint256",
          "name": "",
          "type": "uint256"
        }
      ],
      "name": "Products",
      "outputs": [
        {
          "internalType": "bool",
          "name": "exists",
          "type": "bool"
        },
        {
          "internalType": "uint256",
          "name": "pID",
          "type": "uint256"
        },
        {
          "internalType": "string",
          "name": "pName",
          "type": "string"
        },
        {
          "internalType": "string",
          "name": "brand",
          "type": "string"
        },
        {
          "internalType": "string",
          "name": "sno",
          "type": "string"
        },
        {
          "internalType": "string",
          "name": "pDesc",
          "type": "string"
        },
        {
          "internalType": "address",
          "name": "pManufacturer",
          "type": "address"
        },
        {
          "internalType": "address",
          "name": "currentOwner",
          "type": "address"
        }
      ],
      "payable": false,
      "stateMutability": "view",
      "type": "function"
    },
    {
      "constant": true,
      "inputs": [],
      "name": "owner",
      "outputs": [
        {
          "internalType": "address",
          "name": "",
          "type": "address"
        }
      ],
      "payable": false,
      "stateMutability": "view",
      "type": "function"
    },
    {
      "constant": false,
      "inputs": [
        {
          "internalType": "string",
          "name": "_mName",
          "type": "string"
        },
        {
          "internalType": "address",
          "name": "_mAddress",
          "type": "address"
        }
      ],
      "name": "createManufacturer",
      "outputs": [],
      "payable": false,
      "stateMutability": "nonpayable",
      "type": "function"
    },
    {
      "constant": false,
      "inputs": [
        {
          "internalType": "string",
          "name": "_name",
          "type": "string"
        },
        {
          "internalType": "string",
          "name": "_desc",
          "type": "string"
        }
      ],
      "name": "createProduct",
      "outputs": [],
      "payable": false,
      "stateMutability": "nonpayable",
      "type": "function"
    },
    {
      "constant": true,
      "inputs": [
        {
          "internalType": "uint256",
          "name": "_id",
          "type": "uint256"
        }
      ],
      "name": "getProduct",
      "outputs": [
        {
          "components": [
            {
              "internalType": "bool",
              "name": "exists",
              "type": "bool"
            },
            {
              "internalType": "uint256",
              "name": "pID",
              "type": "uint256"
            },
            {
              "internalType": "string",
              "name": "pName",
              "type": "string"
            },
            {
              "internalType": "string",
              "name": "brand",
              "type": "string"
            },
            {
              "internalType": "string",
              "name": "sno",
              "type": "string"
            },
            {
              "internalType": "string",
              "name": "pDesc",
              "type": "string"
            },
            {
              "internalType": "address",
              "name": "pManufacturer",
              "type": "address"
            },
            {
              "internalType": "address",
              "name": "currentOwner",
              "type": "address"
            },
            {
              "internalType": "address[]",
              "name": "listOfOwners",
              "type": "address[]"
            }
          ],
          "internalType": "struct FauxFinderTransactions.Product",
          "name": "",
          "type": "tuple"
        }
      ],
      "payable": false,
      "stateMutability": "view",
      "type": "function"
    },
    {
      "constant": false,
      "inputs": [
        {
          "internalType": "uint256",
          "name": "_id",
          "type": "uint256"
        },
        {
          "internalType": "address",
          "name": "_newOwner",
          "type": "address"
        }
      ],
      "name": "ownershipChange",
      "outputs": [],
      "payable": false,
      "stateMutability": "nonpayable",
      "type": "function"
    }
  ],
  "bytecode": "0x6080604052600080546001600160a01b0319163317815560015534801561002557600080fd5b50611078806100356000396000f3fe608060405234801561001057600080fd5b506004361061007d5760003560e01c80638da5cb5b1161005b5780638da5cb5b146100bd578063b9db15b4146100db578063dba3f6aa146100fb578063f71350f6146101225761007d565b8063292020d8146100825780635d50e8081461009757806387592bce146100aa575b600080fd5b610095610090366004610c3b565b610144565b005b6100956100a5366004610b6d565b6101ec565b6100956100b8366004610bbe565b610290565b6100c5610381565b6040516100d29190610e02565b60405180910390f35b6100ee6100e9366004610c1d565b610390565b6040516100d29190610ef9565b61010e610109366004610c1d565b6106a9565b6040516100d2989796959493929190610e3f565b610135610130366004610b47565b610922565b6040516100d293929190610e10565b600082815260036020526040902060078101546001600160a01b0316331461016b57600080fd5b6007810180546001600160a01b0384166001600160a01b031991821681179092556008830180546001810182556000918252602090912001805490911690911790556040517feee82a86e06df018fbb160195092b6301bd92f494610b7ec08fbe25a39339860906101df9085908590610f0a565b60405180910390a1505050565b6000546001600160a01b0316331461020357600080fd5b6001600160a01b0381166000908152600260209081526040909120805460ff191660019081178255845191926102409291840191908601906109dc565b506002810180546001600160a01b0319166001600160a01b0384161790556040517f1ad2ce5a5df121738987cd94fd71f43583f75dffcc1d62c17bf061916ace3cee906101df9085908590610ed2565b3360009081526002602052604090205460ff1615156001146102b157600080fd5b600180546000908152600360209081526040909120805460ff19168317815582549281019290925583516102ed916002840191908601906109dc565b50815161030390600583019060208501906109dc565b50600681018054336001600160a01b031991821681179092556007830180548216831790556008830180546001818101835560009283526020909220018054909216831790915580548082019091556040517fdd57cd46da0364851657adeb56a0f03e320612a8e89ff3e6d0e04c603593712d926101df9291610f25565b6000546001600160a01b031681565b610398610a5a565b600082815260036020908152604091829020825161012081018452815460ff1615158152600180830154828501526002808401805487516101009482161594909402600019011691909104601f810186900486028301860187528083529295939493860193919290918301828280156104525780601f1061042757610100808354040283529160200191610452565b820191906000526020600020905b81548152906001019060200180831161043557829003601f168201915b505050918352505060038201805460408051602060026001851615610100026000190190941693909304601f81018490048402820184019092528181529382019392918301828280156104e65780601f106104bb576101008083540402835291602001916104e6565b820191906000526020600020905b8154815290600101906020018083116104c957829003601f168201915b505050918352505060048201805460408051602060026001851615610100026000190190941693909304601f810184900484028201840190925281815293820193929183018282801561057a5780601f1061054f5761010080835404028352916020019161057a565b820191906000526020600020905b81548152906001019060200180831161055d57829003601f168201915b505050918352505060058201805460408051602060026001851615610100026000190190941693909304601f810184900484028201840190925281815293820193929183018282801561060e5780601f106105e35761010080835404028352916020019161060e565b820191906000526020600020905b8154815290600101906020018083116105f157829003601f168201915b505050918352505060068201546001600160a01b039081166020808401919091526007840154909116604080840191909152600884018054825181850281018501909352808352606090940193919290919083018282801561069957602002820191906000526020600020905b81546001600160a01b0316815260019091019060200180831161067b575b5050505050815250509050919050565b60036020908152600091825260409182902080546001808301546002808501805488516101009582161595909502600019011691909104601f810187900487028401870190975286835260ff90931695909491929183018282801561074f5780601f106107245761010080835404028352916020019161074f565b820191906000526020600020905b81548152906001019060200180831161073257829003601f168201915b5050505060038301805460408051602060026001851615610100026000190190941693909304601f81018490048402820184019092528181529495949350908301828280156107df5780601f106107b4576101008083540402835291602001916107df565b820191906000526020600020905b8154815290600101906020018083116107c257829003601f168201915b5050505060048301805460408051602060026001851615610100026000190190941693909304601f810184900484028201840190925281815294959493509083018282801561086f5780601f106108445761010080835404028352916020019161086f565b820191906000526020600020905b81548152906001019060200180831161085257829003601f168201915b5050505060058301805460408051602060026001851615610100026000190190941693909304601f81018490048402820184019092528181529495949350908301828280156108ff5780601f106108d4576101008083540402835291602001916108ff565b820191906000526020600020905b8154815290600101906020018083116108e257829003601f168201915b50505050600683015460079093015491926001600160a01b039081169216905088565b6002602081815260009283526040928390208054600180830180548751601f6000199483161561010002949094019091169690960491820185900485028601850190965280855260ff909116949193928301828280156109c35780601f10610998576101008083540402835291602001916109c3565b820191906000526020600020905b8154815290600101906020018083116109a657829003601f168201915b505050600290930154919250506001600160a01b031683565b828054600181600116156101000203166002900490600052602060002090601f016020900481019282601f10610a1d57805160ff1916838001178555610a4a565b82800160010185558215610a4a579182015b82811115610a4a578251825591602001919060010190610a2f565b50610a56929150610aba565b5090565b604051806101200160405280600015158152602001600081526020016060815260200160608152602001606081526020016060815260200160006001600160a01b0316815260200160006001600160a01b03168152602001606081525090565b610ad491905b80821115610a565760008155600101610ac0565b90565b8035610ae281611015565b92915050565b600082601f830112610af957600080fd5b8135610b0c610b0782610f67565b610f40565b91508082526020830160208301858383011115610b2857600080fd5b610b33838284610fcf565b50505092915050565b8035610ae28161102c565b600060208284031215610b5957600080fd5b6000610b658484610ad7565b949350505050565b60008060408385031215610b8057600080fd5b823567ffffffffffffffff811115610b9757600080fd5b610ba385828601610ae8565b9250506020610bb485828601610ad7565b9150509250929050565b60008060408385031215610bd157600080fd5b823567ffffffffffffffff811115610be857600080fd5b610bf485828601610ae8565b925050602083013567ffffffffffffffff811115610c1157600080fd5b610bb485828601610ae8565b600060208284031215610c2f57600080fd5b6000610b658484610b3c565b60008060408385031215610c4e57600080fd5b6000610ba38585610b3c565b6000610c668383610c7d565b505060200190565b610c7781610fbe565b82525050565b610c7781610fa2565b6000610c9182610f95565b610c9b8185610f99565b9350610ca683610f8f565b8060005b83811015610cd4578151610cbe8882610c5a565b9750610cc983610f8f565b925050600101610caa565b509495945050505050565b610c7781610fad565b6000610cf382610f95565b610cfd8185610f99565b9350610d0d818560208601610fdb565b610d168161100b565b9093019392505050565b8051600090610120840190610d358582610cdf565b506020830151610d486020860182610df9565b5060408301518482036040860152610d608282610ce8565b91505060608301518482036060860152610d7a8282610ce8565b91505060808301518482036080860152610d948282610ce8565b91505060a083015184820360a0860152610dae8282610ce8565b91505060c0830151610dc360c0860182610c7d565b5060e0830151610dd660e0860182610c7d565b50610100830151848203610100860152610df08282610c86565b95945050505050565b610c7781610ad4565b60208101610ae28284610c7d565b60608101610e1e8286610cdf565b8181036020830152610e308185610ce8565b9050610b656040830184610c7d565b6101008101610e4e828b610cdf565b610e5b602083018a610df9565b8181036040830152610e6d8189610ce8565b90508181036060830152610e818188610ce8565b90508181036080830152610e958187610ce8565b905081810360a0830152610ea98186610ce8565b9050610eb860c0830185610c7d565b610ec560e0830184610c7d565b9998505050505050505050565b60408082528101610ee38185610ce8565b9050610ef26020830184610c7d565b9392505050565b60208082528101610ef28184610d20565b60408101610f188285610df9565b610ef26020830184610c7d565b60408101610f338285610df9565b610ef26020830184610c6e565b60405181810167ffffffffffffffff81118282101715610f5f57600080fd5b604052919050565b600067ffffffffffffffff821115610f7e57600080fd5b506020601f91909101601f19160190565b60200190565b5190565b90815260200190565b6000610ae282610fb2565b151590565b6001600160a01b031690565b6000610ae2826000610ae282610fa2565b82818337506000910152565b60005b83811015610ff6578181015183820152602001610fde565b83811115611005576000848401525b50505050565b601f01601f191690565b61101e81610fa2565b811461102957600080fd5b50565b61101e81610ad456fea365627a7a72315820da0b958a6cb45d29517e0d2e041237d5a40ab733c331fa918c3a729c4e482cf36c6578706572696d656e74616cf564736f6c63430005100040",
  "source": "// SPDX-License-Identifier: MIT\r\npragma solidity >=0.4.22 <0.9.0;\r\npragma experimental ABIEncoderV2;\r\n\r\ncontract FauxFinderTransactions {\r\n    address public owner = msg.sender;\r\n\r\n    uint productID = 0;\r\n\r\n    struct Manufacturer {\r\n        bool exists;\r\n        string mName;\r\n        address mAddress;\r\n    }\r\n\r\n    struct Product {\r\n        bool exists;\r\n        uint pID;\r\n        string pName;\r\n        string brand;\r\n        string sno;\r\n        string pDesc;\r\n        address pManufacturer;\r\n        address currentOwner;\r\n        address[] listOfOwners;\r\n    }\r\n\r\n    mapping(address => Manufacturer) public Manufacturers;\r\n\r\n    mapping(uint => Product) public Products;\r\n\r\n\r\n    event addManufacturer(string mName, address mAddress);\r\n    event addProduct(uint pID, address pManufacturer);\r\n    event changedOwnership(uint pid, address newOwner);\r\n\r\n    function createManufacturer(\r\n        string memory _mName,\r\n        address _mAddress\r\n    ) public {\r\n        require(msg.sender == owner);\r\n\r\n        Manufacturer storage m = Manufacturers[_mAddress];\r\n        m.exists = true;\r\n        m.mName = _mName;\r\n        m.mAddress = _mAddress;\r\n\r\n        emit addManufacturer(_mName, _mAddress);\r\n    }\r\n\r\n    function createProduct(string memory _name, string memory _desc) public {\r\n        require(Manufacturers[msg.sender].exists == true);\r\n\r\n        Product storage p = Products[productID];\r\n        p.exists = true;\r\n        p.pID = productID;\r\n        p.pName = _name;\r\n        p.pDesc = _desc;\r\n        p.pManufacturer = msg.sender;\r\n        p.currentOwner = msg.sender;\r\n        p.listOfOwners.push(msg.sender);\r\n        productID++;\r\n\r\n        emit addProduct(productID-1, msg.sender);\r\n    }\r\n\r\n    function getProduct(uint _id) public view returns(Product memory){\r\n\r\n        return Products[_id];\r\n    }\r\n\r\n\r\n    function ownershipChange(uint _id, address _newOwner) public {\r\n        Product storage p = Products[_id];\r\n        require(p.currentOwner == msg.sender);\r\n\r\n        p.currentOwner = _newOwner;\r\n        p.listOfOwners.push(_newOwner);\r\n        emit changedOwnership(_id, _newOwner);\r\n    }\r\n\r\n} \r\n",
  "sourcePath": "D:\\FauxFinder\\contracts\\FauxFinderTransactions.sol",
  "compiler": {
    "name": "solc",
    "version": "0.5.16+commit.9c3226ce.Emscripten.clang"
  },
  "schemaVersion": "3.4.13",
  "updatedAt": "2023-06-13T05:20:39.250Z",
  "networkType": "ethereum",
  "devdoc": {
    "methods": {}
  },
  "userdoc": {
    "methods": {}
  }
}