{
  "contractName": "FauxFinderTransactions",
  "abi": [
    {
      "anonymous": false,
      "inputs": [
        {
          "indexed": false,
          "internalType": "string",
          "name": "mName",
          "type": "string"
        },
        {
          "indexed": false,
          "internalType": "address",
          "name": "mAddress",
          "type": "address"
        }
      ],
      "name": "addManufacturer",
      "type": "event"
    },
    {
      "anonymous": false,
      "inputs": [
        {
          "indexed": false,
          "internalType": "uint256",
          "name": "pID",
          "type": "uint256"
        },
        {
          "indexed": false,
          "internalType": "address",
          "name": "pManufacturer",
          "type": "address"
        }
      ],
      "name": "addProduct",
      "type": "event"
    },
    {
      "anonymous": false,
      "inputs": [
        {
          "indexed": false,
          "internalType": "uint256",
          "name": "pid",
          "type": "uint256"
        },
        {
          "indexed": false,
          "internalType": "address",
          "name": "newOwner",
          "type": "address"
        }
      ],
      "name": "changedOwnership",
      "type": "event"
    },
    {
      "constant": true,
      "inputs": [
        {
          "internalType": "address",
          "name": "",
          "type": "address"
        }
      ],
      "name": "Manufacturers",
      "outputs": [
        {
          "internalType": "bool",
          "name": "exists",
          "type": "bool"
        },
        {
          "internalType": "string",
          "name": "mName",
          "type": "string"
        },
        {
          "internalType": "address",
          "name": "mAddress",
          "type": "address"
        }
      ],
      "payable": false,
      "stateMutability": "view",
      "type": "function"
    },
    {
      "constant": true,
      "inputs": [
        {
          "internalType": "uint256",
          "name": "",
          "type": "uint256"
        }
      ],
      "name": "Products",
      "outputs": [
        {
          "internalType": "bool",
          "name": "exists",
          "type": "bool"
        },
        {
          "internalType": "uint256",
          "name": "pID",
          "type": "uint256"
        },
        {
          "internalType": "string",
          "name": "pName",
          "type": "string"
        },
        {
          "internalType": "string",
          "name": "pDesc",
          "type": "string"
        },
        {
          "internalType": "address",
          "name": "pManufacturer",
          "type": "address"
        },
        {
          "internalType": "address",
          "name": "currentOwner",
          "type": "address"
        }
      ],
      "payable": false,
      "stateMutability": "view",
      "type": "function"
    },
    {
      "constant": true,
      "inputs": [],
      "name": "owner",
      "outputs": [
        {
          "internalType": "address",
          "name": "",
          "type": "address"
        }
      ],
      "payable": false,
      "stateMutability": "view",
      "type": "function"
    },
    {
      "constant": true,
      "inputs": [],
      "name": "Owner",
      "outputs": [
        {
          "internalType": "address",
          "name": "",
          "type": "address"
        }
      ],
      "payable": false,
      "stateMutability": "view",
      "type": "function"
    },
    {
      "constant": false,
      "inputs": [
        {
          "internalType": "string",
          "name": "_mName",
          "type": "string"
        },
        {
          "internalType": "address",
          "name": "_mAddress",
          "type": "address"
        }
      ],
      "name": "createManufacturer",
      "outputs": [],
      "payable": false,
      "stateMutability": "nonpayable",
      "type": "function"
    },
    {
      "constant": false,
      "inputs": [
        {
          "internalType": "string",
          "name": "_name",
          "type": "string"
        },
        {
          "internalType": "string",
          "name": "_desc",
          "type": "string"
        }
      ],
      "name": "createProduct",
      "outputs": [],
      "payable": false,
      "stateMutability": "nonpayable",
      "type": "function"
    },
    {
      "constant": true,
      "inputs": [
        {
          "internalType": "uint256",
          "name": "_id",
          "type": "uint256"
        }
      ],
      "name": "getProduct",
      "outputs": [
        {
          "components": [
            {
              "internalType": "bool",
              "name": "exists",
              "type": "bool"
            },
            {
              "internalType": "uint256",
              "name": "pID",
              "type": "uint256"
            },
            {
              "internalType": "string",
              "name": "pName",
              "type": "string"
            },
            {
              "internalType": "string",
              "name": "pDesc",
              "type": "string"
            },
            {
              "internalType": "address",
              "name": "pManufacturer",
              "type": "address"
            },
            {
              "internalType": "address",
              "name": "currentOwner",
              "type": "address"
            },
            {
              "internalType": "address[]",
              "name": "listOfOwners",
              "type": "address[]"
            }
          ],
          "internalType": "struct FauxFinderTransactions.Product",
          "name": "",
          "type": "tuple"
        }
      ],
      "payable": false,
      "stateMutability": "view",
      "type": "function"
    },
    {
      "constant": false,
      "inputs": [
        {
          "internalType": "uint256",
          "name": "_id",
          "type": "uint256"
        },
        {
          "internalType": "address",
          "name": "_newOwner",
          "type": "address"
        }
      ],
      "name": "ownershipChange",
      "outputs": [],
      "payable": false,
      "stateMutability": "nonpayable",
      "type": "function"
    }
  ],
  "bytecode": "0x6080604052600080546001600160a01b0319163317815560015534801561002557600080fd5b50610ddc806100356000396000f3fe608060405234801561001057600080fd5b50600436106100885760003560e01c8063b4a99a4e1161005b578063b4a99a4e146100e6578063b9db15b4146100ee578063dba3f6aa1461010e578063f71350f61461013357610088565b8063292020d81461008d5780635d50e808146100a257806387592bce146100b55780638da5cb5b146100c8575b600080fd5b6100a061009b366004610a01565b610155565b005b6100a06100b0366004610933565b6101fd565b6100a06100c3366004610984565b6102a1565b6100d0610392565b6040516100dd9190610b91565b60405180910390f35b6100d06103a1565b6101016100fc3660046109e3565b6103b1565b6040516100dd9190610c5d565b61012161011c3660046109e3565b6105a1565b6040516100dd96959493929190610bce565b61014661014136600461090d565b6106fa565b6040516100dd93929190610b9f565b600082815260036020526040902060058101546001600160a01b0316331461017c57600080fd5b6005810180546001600160a01b0384166001600160a01b031991821681179092556006830180546001810182556000918252602090912001805490911690911790556040517feee82a86e06df018fbb160195092b6301bd92f494610b7ec08fbe25a39339860906101f09085908590610c6e565b60405180910390a1505050565b6000546001600160a01b0316331461021457600080fd5b6001600160a01b0381166000908152600260209081526040909120805460ff191660019081178255845191926102519291840191908601906107b4565b506002810180546001600160a01b0319166001600160a01b0384161790556040517f1ad2ce5a5df121738987cd94fd71f43583f75dffcc1d62c17bf061916ace3cee906101f09085908590610c36565b3360009081526002602052604090205460ff1615156001146102c257600080fd5b600180546000908152600360209081526040909120805460ff19168317815582549281019290925583516102fe916002840191908601906107b4565b50815161031490600383019060208501906107b4565b50600481018054336001600160a01b031991821681179092556005830180548216831790556006830180546001818101835560009283526020909220018054909216831790915580548082019091556040517fdd57cd46da0364851657adeb56a0f03e320612a8e89ff3e6d0e04c603593712d926101f09291610c89565b6000546001600160a01b031681565b6000546001600160a01b03165b90565b6103b9610832565b600082815260036020908152604091829020825160e081018452815460ff1615158152600180830154828501526002808401805487516101009482161594909402600019011691909104601f810186900486028301860187528083529295939493860193919290918301828280156104725780601f1061044757610100808354040283529160200191610472565b820191906000526020600020905b81548152906001019060200180831161045557829003601f168201915b505050918352505060038201805460408051602060026001851615610100026000190190941693909304601f81018490048402820184019092528181529382019392918301828280156105065780601f106104db57610100808354040283529160200191610506565b820191906000526020600020905b8154815290600101906020018083116104e957829003601f168201915b505050918352505060048201546001600160a01b039081166020808401919091526005840154909116604080840191909152600684018054825181850281018501909352808352606090940193919290919083018282801561059157602002820191906000526020600020905b81546001600160a01b03168152600190910190602001808311610573575b5050505050815250509050919050565b60036020908152600091825260409182902080546001808301546002808501805488516101009582161595909502600019011691909104601f810187900487028401870190975286835260ff9093169590949192918301828280156106475780601f1061061c57610100808354040283529160200191610647565b820191906000526020600020905b81548152906001019060200180831161062a57829003601f168201915b5050505060038301805460408051602060026001851615610100026000190190941693909304601f81018490048402820184019092528181529495949350908301828280156106d75780601f106106ac576101008083540402835291602001916106d7565b820191906000526020600020905b8154815290600101906020018083116106ba57829003601f168201915b50505050600483015460059093015491926001600160a01b039081169216905086565b6002602081815260009283526040928390208054600180830180548751601f6000199483161561010002949094019091169690960491820185900485028601850190965280855260ff9091169491939283018282801561079b5780601f106107705761010080835404028352916020019161079b565b820191906000526020600020905b81548152906001019060200180831161077e57829003601f168201915b505050600290930154919250506001600160a01b031683565b828054600181600116156101000203166002900490600052602060002090601f016020900481019282601f106107f557805160ff1916838001178555610822565b82800160010185558215610822579182015b82811115610822578251825591602001919060010190610807565b5061082e929150610883565b5090565b6040518060e0016040528060001515815260200160008152602001606081526020016060815260200160006001600160a01b0316815260200160006001600160a01b03168152602001606081525090565b6103ae91905b8082111561082e5760008155600101610889565b80356108a881610d79565b92915050565b600082601f8301126108bf57600080fd5b81356108d26108cd82610ccb565b610ca4565b915080825260208301602083018583830111156108ee57600080fd5b6108f9838284610d33565b50505092915050565b80356108a881610d90565b60006020828403121561091f57600080fd5b600061092b848461089d565b949350505050565b6000806040838503121561094657600080fd5b823567ffffffffffffffff81111561095d57600080fd5b610969858286016108ae565b925050602061097a8582860161089d565b9150509250929050565b6000806040838503121561099757600080fd5b823567ffffffffffffffff8111156109ae57600080fd5b6109ba858286016108ae565b925050602083013567ffffffffffffffff8111156109d757600080fd5b61097a858286016108ae565b6000602082840312156109f557600080fd5b600061092b8484610902565b60008060408385031215610a1457600080fd5b60006109698585610902565b6000610a2c8383610a43565b505060200190565b610a3d81610d22565b82525050565b610a3d81610d06565b6000610a5782610cf9565b610a618185610cfd565b9350610a6c83610cf3565b8060005b83811015610a9a578151610a848882610a20565b9750610a8f83610cf3565b925050600101610a70565b509495945050505050565b610a3d81610d11565b6000610ab982610cf9565b610ac38185610cfd565b9350610ad3818560208601610d3f565b610adc81610d6f565b9093019392505050565b805160009060e0840190610afa8582610aa5565b506020830151610b0d6020860182610b88565b5060408301518482036040860152610b258282610aae565b91505060608301518482036060860152610b3f8282610aae565b9150506080830151610b546080860182610a43565b5060a0830151610b6760a0860182610a43565b5060c083015184820360c0860152610b7f8282610a4c565b95945050505050565b610a3d816103ae565b602081016108a88284610a43565b60608101610bad8286610aa5565b8181036020830152610bbf8185610aae565b905061092b6040830184610a43565b60c08101610bdc8289610aa5565b610be96020830188610b88565b8181036040830152610bfb8187610aae565b90508181036060830152610c0f8186610aae565b9050610c1e6080830185610a43565b610c2b60a0830184610a43565b979650505050505050565b60408082528101610c478185610aae565b9050610c566020830184610a43565b9392505050565b60208082528101610c568184610ae6565b60408101610c7c8285610b88565b610c566020830184610a43565b60408101610c978285610b88565b610c566020830184610a34565b60405181810167ffffffffffffffff81118282101715610cc357600080fd5b604052919050565b600067ffffffffffffffff821115610ce257600080fd5b506020601f91909101601f19160190565b60200190565b5190565b90815260200190565b60006108a882610d16565b151590565b6001600160a01b031690565b60006108a88260006108a882610d06565b82818337506000910152565b60005b83811015610d5a578181015183820152602001610d42565b83811115610d69576000848401525b50505050565b601f01601f191690565b610d8281610d06565b8114610d8d57600080fd5b50565b610d82816103ae56fea365627a7a72315820fd28063aa88cc0f78aa17ae425c0374d582d030f8a732d3d7787d34748fcc69c6c6578706572696d656e74616cf564736f6c63430005100040",
  "source": "pragma solidity >=0.4.22 <0.9.0;\r\npragma experimental ABIEncoderV2;\r\n\r\ncontract FauxFinderTransactions{\r\n    \r\n    address public owner = msg.sender; \r\n   \r\n    uint productID = 0;\r\n    \r\n  \r\n    struct Manufacturer{\r\n        bool exists;\r\n        string mName;\r\n        address mAddress;\r\n\r\n    }\r\n\r\n    struct Product {\r\n        bool exists;\r\n        uint pID;\r\n        string pName;\r\n        string pDesc;\r\n        address pManufacturer;\r\n        address currentOwner;\r\n        address[] listOfOwners;\r\n    }\r\n\r\n    \r\n\r\n    mapping(address => Manufacturer) public Manufacturers;\r\n    mapping(uint => Product) public Products;\r\n\r\n\r\n    event addManufacturer(string mName, address mAddress);\r\n    event addProduct(uint pID, address pManufacturer);\r\n    event changedOwnership(uint pid, address newOwner);\r\n\r\n    function Owner() public view returns(address){\r\n        return owner;\r\n    }\r\n\r\n\r\n    function createManufacturer(string memory _mName, address _mAddress ) public{\r\n        require(msg.sender == owner);\r\n\r\n        Manufacturer storage m = Manufacturers[_mAddress];\r\n        m.exists = true;\r\n        m.mName = _mName;\r\n        m.mAddress = _mAddress;\r\n        emit addManufacturer(_mName, _mAddress);\r\n    }\r\n\r\n    function createProduct(string memory _name, string memory _desc) public{\r\n        require(Manufacturers[msg.sender].exists == true);\r\n\r\n        Product storage p = Products[productID];\r\n        p.exists = true;\r\n        p.pID = productID;\r\n        p.pName = _name;\r\n        p.pDesc = _desc;\r\n        p.pManufacturer = msg.sender;\r\n        p.currentOwner = msg.sender;\r\n        p.listOfOwners.push(msg.sender);\r\n        productID++;\r\n\r\n        emit addProduct(productID-1, msg.sender);\r\n    }\r\n\r\n    function getProduct(uint _id) public view returns(Product memory){\r\n        return Products[_id];\r\n    }\r\n\r\n    function ownershipChange(uint _id, address _newOwner) public {\r\n        Product storage p = Products[_id];\r\n        require(p.currentOwner == msg.sender);\r\n\r\n        p.currentOwner = _newOwner;\r\n        p.listOfOwners.push(_newOwner);\r\n        emit changedOwnership(_id, _newOwner);\r\n\r\n    }\r\n}",
  "sourcePath": "D:\\FauxFinder\\contracts\\FauxFinderTransactions.sol",
  "compiler": {
    "name": "solc",
    "version": "0.5.16+commit.9c3226ce.Emscripten.clang"
  },
  "schemaVersion": "3.4.13",
  "updatedAt": "2023-05-20T15:03:50.819Z",
  "devdoc": {
    "methods": {}
  },
  "userdoc": {
    "methods": {}
  }
}